:020000040800F2
:1000000000280020ED0100083F0200084B02000814
:1000100051020008570200085D02000800000000BD
:100020000000000000000000000000006302000863
:100030006F020008000000007B0200088702000831
:100040003D0200083D0200083D0200083D02000894
:100050003D0200083D0200083D0200083D02000884
:100060003D0200083D0200083D0200083D02000874
:100070003D0200083D0200083D0200083D02000864
:100080003D0200083D0200083D0200083D02000854
:100090003D0200083D0200083D0200083D02000844
:1000A0003D0200083D0200083D0200083D02000834
:1000B0003D0200083D020008000000003D0200086B
:1000C0003D02000800000000000000003D020008A2
:1000D000000000003D0200083D0200080000000092
:1000E0003D0200083D0200083D020008000000003B
:1000F0000000000000000000000000000000000000
:0C01000000000000000000005FF808F1A3
:10010C0010B5054C237833B9044B13B10448AFF345
:10011C0000800123237010BD0000002000000000AF
:10012C005004000808B5034B1BB103490348AFF357
:10013C00008008BD000000000400002050040008EE
:10014C0080B400AF224B4FF401629A61204A204BDD
:10015C005B6843F44E3343F0CD0353601C4A1C4B95
:10016C001B6843F480331360194A194B1B6823F046
:10017C000F031360174B03229A84164B18221A850F
:10018C00144B4FF41C729A85124B11221A80124B8D
:10019C00124A5A60104A104BDB6843F40053D36088
:1001AC000C4B1B8A9BB203F00103002BF8D00949BE
:1001BC00084B1B8A9AB243F2303313409BB20B822A
:1001CC00054A054BDB6883F40053D360E8E700BFB6
:1001DC0000100240002C0140001001404444244413
:1001EC00DFF834D0002103E00C4B5B584350043152
:1001FC000B480C4B42189A42F6D30B4A02E00023F0
:10020C0042F8043B094B9A42F9D300F03DF800F058
:10021C00F5F8FFF795FF70470028002070040008E0
:10022C000000002000000020000000201C00002026
:10023C00FEE780B400AF00BFBD4680BC704780B401
:10024C0000AFFEE780B400AFFEE780B400AFFEE77E
:10025C0080B400AFFEE780B400AF00BFBD4680BCE9
:10026C00704780B400AF00BFBD4680BC704780B4FF
:10027C0000AF00BFBD4680BC704780B400AF00BF6C
:10028C00BD4680BC7047000080B500AF154A154BC9
:10029C001B6843F0010313601249124B5A68124B4E
:1002AC0013404B600F4A0F4B1B6823F0847323F4ED
:1002BC00803313600B4A0B4B1B6823F480231360B1
:1002CC00084A084B5B6823F4FE035360054B4FF45C
:1002DC001F029A6000F00CF8044B4FF000629A6019
:1002EC0000BF80BD001002400000FFF800ED00E0F0
:1002FC0080B500AF00F002F800BF80BD80B483B0C1
:10030C0000AF00237B6000233B603A4A394B1B68EB
:10031C0043F480331360374B1B6803F400333B60AA
:10032C007B6801337B603B68002B03D17B68B3F5A2
:10033C00A06FF0D12F4B1B6803F40033002B02D0BD
:10034C0001233B6001E000233B603B68012B4BD158
:10035C00294A294B1B6843F010031360264A264B8D
:10036C001B6823F003031360234A234B1B6843F0E1
:10037C00020313601F4A1F4B5B6853601D4A1D4BE1
:10038C005B6853601B4A1B4B5B6843F48063536090
:10039C00184A184B5B6823F47C135360154A154BB1
:1003AC005B6843F4E8135360124A124B1B6843F02A
:1003BC008073136000BF0F4B1B6803F00073002B9E
:1003CC00F9D00C4A0B4B5B6823F003035360094ACA
:1003DC00084B5B6843F00203536000BF054B5B683E
:1003EC0003F00C03082BF9D100BF0C37BD4680BCC1
:1003FC00704700BF001002400020024070B500257D
:10040C000C4E0D4CA41BA410A54209D100F01AF8F7
:10041C0000250A4E0A4CA41BA410A54205D170BDA0
:10042C0056F8253098470135EEE756F825309847B1
:10043C000135F2E768040008680400086804000845
:10044C006C040008F8B500BFF8BC08BC9E467047A9
:0C045C00F8B500BFF8BC08BC9E46704715
:040468003101000856
:04046C000D01000876
:04000005080001ED01
:00000001FF
