:020000040800F2
:100000000050002061200008FD1F0008FF1F0008AD
:10001000012000080320000805200008000000005F
:10002000000000000000000000000000D10D0008EA
:100030000720000800000000610E0008A50E00085F
:10004000A9200008A9200008A9200008A92000086C
:10005000A9200008A9200008A9200008A92000085C
:10006000A9200008A9200008A9200008A92000084C
:10007000A9200008A9200008A9200008A92000083C
:10008000A9200008A9200008A9200008A92000082C
:10009000A9200008A9200008A9200008A92000081C
:1000A000A920000809200008A9200008A9200008AC
:1000B000A9200008A9200008A9200008A9200008FC
:1000C000A9200008A9200008A9200008A9200008EC
:1000D000A9200008A9200008A9200008A9200008DC
:1000E000A9200008A9200008A9200008000000009D
:1000F0000000000000000000000000000000000000
:0C01000000000000000000005FF808F1A3
:1001100010B5054C237833B9044B13B10448AFF341
:1001200000800123237010BD10000020000000009B
:100130001C21000808B5034B1BB103490348AFF36A
:10014000008008BD00000000140000201C210008F1
:10015000074A08B51368032043F01003136000F04A
:100160001BF8002001F00EFF01F0AAFE002008BDE0
:1001700000200240034A044B11681B780B441360B3
:10018000704700BF780D002000000020014B186868
:10019000704700BF780D0020074A0002D36800F4C2
:1001A000E06023F4E0631B041B0C43F0BF6343F4E3
:1001B00000330343D360704700ED00E0174B30B5C8
:1001C000DC68C4F30224C4F10703251D042B28BFF7
:1001D0000423062D4FF0010598BF002405FA03F310
:1001E00003F1FF3388BF033C1940A14005FA04F432
:1001F000013C2240002842EA01024FEA0212A9BF54
:1002000000F16040064BD2B200F56140BBBF00F088
:100210000F00D2B280F800231A5430BD00ED00E088
:1002200014ED00E0002808DB0123420900F01F0064
:1002300003FA00F0014B43F82200704700E100E0B0
:100240002DE9F74F00242646664BDFF8A8E1DFF8DA
:10025000A8C10A6832FA06F502D103B0BDE8F08FF2
:100260004FF0010808FA06F802EA080290457FD12B
:100270004D68122D00F0AA8000F28380022D00F05C
:10028000A28077D8002D00F08980012D00F09980A0
:100290004FF00F09FF2A93BF824606F18045083DC3
:1002A000D0F800B092BFB500D0F804B0AD0009FAA4
:1002B00005F82BEA080804FA05F588BF00F1040ADE
:1002C00048EA0505CAF80050D1F804A01AF0805F8A
:1002D0004ED0454D444FAD6926F0030845F0010569
:1002E000BD61BD6908F1804805F00105019508F57B
:1002F000803806F0030B019D4FEA8B0BD8F80850AD
:1003000009FA0BF925EA0909384DA84263D005F529
:100310008065A84261D005F58065A8425FD005F5EB
:100320008065A8420CBF0325042505FA0BF545EAB4
:100330000905C8F808501D681AF4803F14BF15431A
:1003400095431D605D681AF4003F14BF1543954343
:100350005D609D681AF4801F14BF154395439D602E
:10036000DD681AF4001F14BF2A4325EA0202DA608E
:1003700001366EE7032D22D0112D89D1CC680434CB
:1003800086E71B4FBD4209D012D8DFF870904D456B
:1003900004D009F580394D457FF47AAF8C68C4B13B
:1003A000012C0CBFC0F81080C0F8148008246FE73F
:1003B0007545F3D06545F1D0DFF84490EBE70024B4
:1003C00066E7CC6864E7CC68083461E7CC680C3435
:1003D0005EE704245CE70025A7E70125A5E70225E1
:1003E000A3E700BF000401400010024000080140E4
:1003F0000000211000003110000032100000111028
:10040000000022100AB1016170470904FBE7C368CC
:100410000B4214BF41610161704700002DE9F341B7
:10042000054608B901203CE00368DB0710D42B68BF
:100430009F075DD42B68190700F194802B685A0739
:1004400000F1BE80E869002840F02C81002028E0FF
:100450008F4C636803F00C03042B07D0636803F030
:100460000C03082B09D16368DE0306D523689C03BF
:10047000DDD56B68002BDAD1D4E76B68B3F5803F2C
:1004800012D1236843F480332360FFF77FFE0646D2
:1004900023689803CBD4FFF779FE801B6428F7D933
:1004A000032002B0BDE8F0819BB9236823F48033B8
:1004B0002360236823F480232360FFF767FE06464A
:1004C00023689903B3D5FFF761FE801B6428F7D931
:1004D000E6E7B3F5A02F236803D143F4802323601C
:1004E000CFE723F480332360236823F48023CBE712
:1004F000674C636813F00C0F07D0636803F00C03BC
:10050000082B10D16368DA030DD423689B0702D54A
:100510002B69012B86D123686A6923F0F80343EA2B
:10052000C203236086E72A695A4B6AB101221A6026
:10053000FFF72CFE064623689F07ECD4FFF726FE44
:10054000801B0228F7D9ABE71A60FFF71FFE0646AB
:10055000236898077FF56EAFFFF718FE801B02280F
:10056000F6D99DE7AA694A4C4B4BDAB101221A60D1
:10057000FFF70CFE0646636A9B070DD54FF4FA524F
:10058000464B1B68B3FBF2F3019300BF019B5A1E5D
:100590000192002BF9D151E7FFF7F8FD801B0228EB
:1005A000E9D97DE71A60FFF7F1FD0646636A9F0708
:1005B0007FF544AFFFF7EAFD801B0228F6D96FE70D
:1005C000334CE369D80024D40127E36943F0805316
:1005D000E361E36903F080530093009B304E33687E
:1005E000D90518D5EB68012B26D1236A43F0010306
:1005F0002362FFF7CBFD41F288368046236A9B07D2
:100600003FD5002F3FF41EAFE36923F08053E36131
:1006100018E70027E2E7336843F480733360FFF79D
:10062000B5FD80463368DA05DCD4FFF7AFFDA0EBFB
:1006300008006428F6D933E7ABB9236A41F2883859
:1006400023F001032362236A23F004032362FFF7EC
:100650009DFD0646236A9807D3D5FFF797FD801BBB
:100660004045F7D91CE7052B236A03D143F0040367
:100670002362BAE723F001032362236A23F0040311
:10068000B6E7FFF783FDA0EB0800B042B6D907E755
:100690000010024000004242800442420C00002050
:1006A000007000402A4B5A681C4602F00C02082ACF
:1006B0003DD00023274E022833602BD1FFF766FD83
:1006C0000746236899011FD42B6AB3F5803F05D1F3
:1006D0006268A96822F400320A436260696A62684B
:1006E0000B4322F474121343636001233360FFF75A
:1006F0004DFD054623689A013FF5A8AEFFF746FD7C
:10070000401B0228F6D9CBE6FFF740FDC01B0228AC
:10071000D7D9C5E6FFF73AFD054623689B017FF56B
:1007200095AEFFF733FD401B0228F6D9B8E6012845
:100730003FF4B7AE58682B6A00F480329A427FF4D7
:1007400071AE6B6A00F47010C01A18BF0120A8E6E1
:10075000001002406000424230B5194B87B002AC35
:1007600003F11005224618685968083303C2AB42EA
:100770001446F7D101238DF80430022311498DF876
:1007800005304B6803F00C02082A17D1C3F38342EB
:1007900006A80244DB0312F8102C0CD54B680A485B
:1007A000C3F34043504306AA134413F8143CB0FB70
:1007B000F3F007B030BD05485043FAE70248F8E7C8
:1007C000342100080010024000127A0000093D00A8
:1007D0002DE9F0410D46044610B90120BDE8F08135
:1007E000454A136803F007038B4229D321688E071B
:1007F00031D4CA0744D4404A136803F007039D422A
:1008000067D322683D4D12F0040F6ED1130706D551
:100810006B68226923F4605343EAC2036B60FFF7FD
:100820009BFF6B68364AC3F30313D35CD840354B48
:100830001860354B186801F0A5FB0020BDE8F08179
:10084000136823F007030B431360136803F00703D7
:100850009942C2D1CAE7294B11F0040F1EBF5A6852
:1008600042F4E0625A60080742BF5A6842F460529C
:100870005A605A68A06822F0F00202435A60B8E752
:1008800062681E4E012A33681BD113F4003FA4D0C6
:10089000736841F2883823F0030313437360FFF752
:1008A00075FC07467368626803F00C03B3EB820FB4
:1008B000A1D0FFF76BFCC01B4045F3D90320BDE876
:1008C000F081022A02D113F0007FE0E713F0020F5B
:1008D000DDE7136823F007032B431360136803F06D
:1008E00007039D427FF479AF8BE76B68E16823F4DF
:1008F000E0630B436B6089E7002002400010024078
:10090000A32100080C00002004000020044B054A2D
:100910005B68C3F30223D35C034A1068D840704776
:1009200000100240B32100080C000020044B054ACF
:100930005B68C3F3C223D35C034A1068D840704796
:1009400000100240B32100080C0000200F230360B8
:100950000B4B5A6802F0030242605A6802F0F00240
:1009600082605A6802F4E062C2605B68DB0803F4EC
:10097000E0630361034B1B6803F007030B607047E0
:100980000010024000200240704703680020DA682F
:1009900042F00102DA609A6802F00702062A1EBFDE
:1009A0001A6842F001021A6070477047704770473A
:1009B0007047036810B51A69044691070ED5DA68C6
:1009C00092070BD56FF002021A6101229B69027730
:1009D0009B0777D0FFF7EAFF0023237723681A6984
:1009E000500710D5DA6851070DD56FF004021A616F
:1009F00002229B69227713F4407F204668D0FFF7DC
:100A0000D5FF0023237723681A6912070FD5DA6808
:100A100010070CD56FF008021A610422DB692277F7
:100A2000990720465AD0FFF7C1FF00232377236898
:100A30001A69D20610D5DA68D0060DD56FF010020B
:100A40001A610822DB69227713F4407F20464BD0DD
:100A5000FFF7ACFF0023237723681A69D10708D575
:100A6000DA68D20705D56FF0010220461A6101F05D
:100A70001DFA23681A69100608D5DA68110605D52B
:100A80006FF0800220461A6100F089F823681A6925
:100A9000520608D5DA68500605D56FF040022046A8
:100AA0001A61FFF785FF23681A69910622D5DA6873
:100AB00092061FD56FF020022046BDE810401A6153
:100AC00000F06CB8FFF771FF2046FFF770FF83E777
:100AD000FFF76BFF2046FFF76AFF92E7FFF765FF1E
:100AE0002046FFF764FFA0E7FFF75FFF2046FFF710
:100AF0005EFFAFE710BD00001A4A036890420AD0BB
:100B0000B0F1804F07D0A2F59432904203D002F5A5
:100B10008062904215D14A6823F070031343114A52
:100B200090420AD0B0F1804F07D0A2F594329042A3
:100B300003D002F58062904203D1CA6823F4407367
:100B400013434A6923F08003134303608B68C36235
:100B50000B688362034B984204BF0B690363012354
:100B600043617047002C014010B50446A0B190F8D5
:100B70003D3003F0FF021BB980F83C20FFF704FF73
:100B80000223206884F83D30211DFFF7B5FF0123C3
:100B9000002084F83D3010BD012010BD7047704723
:100BA00038B505460368C1681A69192422F4405211
:100BB0000A431A6182680069D9680243686921F4AE
:100BC000B05121F00C0102430A43DA605A69A96965
:100BD00022F440720A435A610D4A934214D1FFF73E
:100BE000A5FE60436C686422A400B0FBF4F0B0FB87
:100BF000F2F402FB14031B013233B3FBF2F3296856
:100C000003EB04138B6038BDFFF780FEE9E700BFFC
:100C10000038014010B5044640B390F8393003F075
:100C2000FF021BB980F8382001F072F924232268F2
:100C300084F83930D368204623F40053D360FFF79B
:100C4000AFFF236800201A6922F490421A615A69A2
:100C500022F02A025A61DA6842F40052DA60202354
:100C6000E06384F8393084F83A3010BD012010BDBB
:100C700008B500F07FFD002008BD30B5B0F9084090
:100C800085B0842C08BF0024028A18BF03340B46A9
:100C900090E8220003A801900094284600F09AFCF6
:100CA000012814BF0020039805B030BD08B5002806
:100CB00008BF012000F0ACFE002008BD012000F0BC
:100CC000E9BB00F1080343604FF0FF32C3600361EA
:100CD000002382600360704700230361704743680C
:100CE0009A684B608A609A685160996003680861ED
:100CF0000133036070470A6830B5531C0AD1036999
:100D00005A684A6091608B605960036808610133DA
:100D1000036030BD00F108035C682568AA42EFD388
:100D20002346F9E74168826803698A6082685160F6
:100D30005968884208BF5A60002202611A68013A65
:100D40001A60186870470000002382B001930D4BB1
:100D50001B68013308D04FF0500383F31188BFF3B1
:100D60006F8FBFF34F8FFEE74FF0500383F311886F
:100D7000BFF36F8FBFF34F8F019B002BFCD002B0EE
:100D8000704700BF0800002006480068006880F334
:100D9000088862B661B6BFF34F8FBFF36F8F00DF75
:100DA00000BF000008ED00E04FF0807340F8043C05
:100DB000054B21F0010140F8081C40F80C3C40F8BC
:100DC000202C4038704700BF490D0008000000008B
:100DD000074B19680868B0E8F00F80F30988BFF383
:100DE0006F8F4FF0000080F311884EF00D0E7047AA
:100DF0004C0C00204FF0500383F31188BFF36F8F2A
:100E0000BFF34F8F0A4A13680133012B13600DD1D2
:100E1000084B1B6813F0FF0F08D04FF0500383F30B
:100E20001188BFF36F8FBFF34F8FFEE7704700BF8E
:100E30000800002004ED00E0084A136843B94FF0B1
:100E4000500383F31188BFF36F8FBFF34F8FFEE71B
:100E5000013B13600BB983F3118870470800002031
:100E6000EFF30980BFF36F8F0D4B1A6820E9F00F85
:100E700010602DE908404FF0500080F3118800F019
:100E8000EBFD4FF0000080F31188BDE808401968C1
:100E90000868B0E8F00F80F30988BFF36F8F7047E0
:100EA0004C0C002008B54FF0500383F31188BFF3BA
:100EB0006F8FBFF34F8F00F0A1FC18B14FF080523D
:100EC000024B1A60002383F3118808BD04ED00E093
:100ED0000023084A084913600B604FF47A71074BEE
:100EE0001B68B3FBF1F30649013B0B60072313605A
:100EF000704700BF10E000E018E000E00C000020A8
:100F000014E000E013B5274B00211A78D2B2019209
:100F1000FF221A701B78244ADBB28DF803309DF84B
:100F2000033003F0500313700722204B1A609DF822
:100F30000300541E00060DD401B11A601A68032A7A
:100F400011D04FF0500383F31188BFF36F8FBFF3BD
:100F50004F8FFEE79DF8032001215200D2B28DF899
:100F600003202246E3E70024120202F4E0621A6042
:100F7000019B0C4ADBB213700D4B1A6842F47002ED
:100F80001A601A6842F070421A60FFF7A1FF094B1D
:100F90001C60FFF7F9FE00F05FFDFFF7D5FE20466D
:100FA00002B010BD00E400E02C0000203000002062
:100FB00020ED00E00800002010B50F4B1A688242B7
:100FC00018D35C681919884201BF4168184609198D
:100FD0005960446801198A4207D1084909688A4260
:100FE0001FBF51681268091941609842026018BF1A
:100FF000186010BD1346E1E7440C002034000020C7
:101000002DE9F041044600F0F1FB3E493E4D0B68EE
:101010000BBB3E4A56071DBFD01D20F0070002F54E
:1010200040634FF440631CBF02461B1A0020134468
:10103000374E083B23F00703706032605860186039
:101040000B60981A1360334B50601860324B186075
:101050004FF000432B602F68274216D1002C40D060
:1010600004F1080358071CBF23F00703083363B1DA
:10107000294A16689046B34207D8254A1568686819
:10108000834204D809688D4207D1002429E02C68E6
:10109000002CF7D02A462546F1E72968146811602C
:1010A000C21A102A0FD9E818410708D04FF0500390
:1010B00083F31188BFF36F8FBFF34F8FFEE742605A
:1010C0006B60FFF779FF6B681249F61A1F43002324
:1010D0000868C8F80060864238BF0E6008346F6048
:1010E0002B6000F01DFC630708D04FF0500383F322
:1010F0001188BFF36F8FBFF34F8FFEE72046BDE827
:10110000F08100BF34000020380C0020380000209F
:10111000440C0020400C00203C0C002010B504467C
:1011200070B3184A50F8043C1268134208D14FF0CB
:10113000500383F31188BFF36F8FBFF34F8FFEE728
:1011400050F8081C41B14FF0500383F31188BFF3EE
:101150006F8FBFF34F8FFEE723EA020340F8043C92
:1011600000F044FB084A54F8043C1168A4F108005C
:101170000B441360FFF720FFBDE8104000F0D0BB28
:1011800010BD00BF380C00203C0C002070B5154687
:10119000026C0446866B42B905689DB9406800F050
:1011A0004FFD65600136A66370BD6DB9806800F0C3
:1011B000A1FFA368226C13446268A360934201D329
:1011C0002368A3600020EDE7C06800F093FF236C64
:1011D000E2685B4221681A448A42E2603EBF62686C
:1011E0009B18E360022DEDD10EB1013EEAE73046D7
:1011F000D8E770B50446FFF7FDFD94F8455004F1BB
:1012000024066DB2002D14DCFF2384F84530FFF76F
:1012100013FEFFF7EFFD94F8445004F110066DB291
:10122000002D12DCFF2384F84430BDE87040FFF746
:1012300003BE636A002BE7D0304600F061FC08B1C2
:1012400000F0E8FC013D6DB2DCE72369002BE9D03A
:10125000304600F055FC08B100F0DCFC013D6DB2F9
:10126000DEE7000038B50D46044640B94FF05003A4
:1012700083F31188BFF36F8FBFF34F8FFEE7FFF744
:10128000B9FD206CE36B22684343D1181B1A134449
:101290006160E3600021FF23A163A26084F8443011
:1012A00084F8453095B9236963B104F1100000F06A
:1012B00027FC38B14FF08052094B1A60BFF34F8FB3
:1012C000BFF36F8FFFF7B8FD012038BD04F11000A8
:1012D000FFF7F7FC04F12400FFF7F3FCF2E700BF8F
:1012E00004ED00E070B50D46064640B94FF05003DE
:1012F00083F31188BFF36F8FBFF34F8FFEE748432F
:101300004830FFF77DFE044638B145B92060E663FA
:10131000256401212046FFF7A5FF204670BD00F19E
:1013200048030360F3E700002DE9FF478946019277
:101330001F46044640B94FF0500383F31188BFF3B2
:101340006F8FBFF34F8FFEE7002940F08880036C5A
:10135000002B00F084804FF0500383F31188BFF31B
:101360006F8FBFF34F8FFEE7019E002E00F082804B
:101370004FF0500383F31188BFF36F8FBFF34F8F8C
:10138000FEE7019D1DB9FFF757FD002058E016B993
:1013900002A800F0F7FBFFF74FFD00F027FAFFF778
:1013A00029FD94F84430FF2B08BF84F8448094F85A
:1013B0004530FF2B08BF84F84580FFF73DFD01A9AC
:1013C00002A800F0EBFB002843D1FFF713FDA66B4A
:1013D000E56BFFF731FDAE4235D1019904F1100004
:1013E00000F074FB2046FFF704FF00F099FA38B9CB
:1013F0004FF08053CAF80030BFF34F8FBFF36F8FA9
:101400000126FFF7F7FCA26BE36B9A4201D3022F90
:10141000B7D13A4649462046FFF7B8FE636A1BB18A
:1014200004F1240000F06CFB38B14FF08052184BEF
:101430001A60BFF34F8FBFF36F8FFFF7FDFC0120E2
:1014400004B0BDE8F0872046FFF7D3FE00F068FA4D
:10145000D6E72046FFF7CDFE00F062FA95E7022FAF
:1014600002D1E36B012B0AD100F0DAFB00283FF434
:101470007BAF00264FF00008DFF814A0C1E74FF063
:10148000500383F31188BFF36F8FBFF34F8FFEE7D5
:1014900004ED00E010B5024600210120FFF722FF15
:1014A000044638B1002343600360C3601A461946FE
:1014B000FFF73AFF204610BD064A13681968064B2D
:1014C00019B94FF0FF321A6070471268D268D268BB
:1014D0005268F8E7500C0020280D0020F8B51B4B8F
:1014E0001B4E1D68044630680F460430FFF71AFC97
:1014F000334640B901203168164EC96A32688840C7
:1015000022EA00023260621C07D137B11968124822
:101510000431BDE8F840FFF7E2BB2C441A68A5424D
:10152000546007D90D4A10681968BDE8F8400431C5
:10153000FFF7E1BB0A4A106819680431FFF7DBFBCB
:10154000084B1A68944238BF1C60F8BD700D00202B
:101550004C0C0020F80C0020480D0020540C0020FA
:10156000500C0020280D002080B5DFF86480144F57
:10157000144C154E236863B9144B1B68012BF8D922
:101580004FF08053C8F80030BFF34F8FBFF36F8F19
:10159000EEE7FFF72FFCFB68DD68281DFFF7C2FBB5
:1015A0003368013B33602368013B2360FFF744FC51
:1015B000286BFFF7B3FD2846FFF7B0FDDAE700BF61
:1015C0005C0D0020E80C0020E40C0020580C0020EA
:1015D00004ED00E02DE9F84F4FEA820A80465046BC
:1015E0000F4699460B9EFFF70BFD0546002800F0BD
:1015F00096805420FFF704FD0446002800F08C80FC
:10160000AAF1040A056355447B1E25F0070A00F180
:1016100034020F37597802F8011B13F8011F09B182
:10162000BB42F7D10A9D4FF0000B062D28BF0625BF
:10163000271DE5626564384684F843B0C4F848B0B5
:10164000FFF74AFBC5F1070504F11800FFF744FB5B
:10165000C4F84CB02461A561646284F850B04A4675
:1016600041465046FFF7A0FB206006B13460FFF70B
:10167000C1FB324B324E1A68DFF8F08001321A603B
:101680003568002D4ED134601B68012B1DD108EB4D
:1016900005001435FFF715FB8C2DF8D1DFF8D0903D
:1016A000284D4846FFF70DFB2846FFF70AFB264862
:1016B000FFF707FB2548FFF704FB2548FFF701FB71
:1016C000244BC3F80090244B1D600125234A244974
:1016D0001368086801331360E26A05FA02F30343F2
:1016E00014200B6000FB02803946FFF7F8FAFFF781
:1016F000A3FB1C4B1B6863B13368DA6AE36A9A4246
:1017000007D24FF08052184B1A60BFF34F8FBFF3D0
:101710006F8F2846BDE8F88F2846FFF7FFFC4FF093
:10172000FF35F6E70F4B1B68002BCED13368DA6A22
:10173000E36A9A4298BF3460C7E700BFE40C002018
:101740004C0C0020100D0020300D00205C0D0020FE
:10175000480D0020500C0020540C0020F40C0020F8
:10176000F80C0020440D002004ED00E0580C00208F
:10177000FC0C002013B50024164B0094019380222A
:10178000234615491548FFF725FF012814D14FF0CE
:10179000500383F31188BFF36F8FBFF34F8F4FF068
:1017A000FF320F4B1A600F4B18600F4B1C6002B0DA
:1017B000BDE81040FFF7A6BB013008D14FF0500341
:1017C00083F31188BFF36F8FBFF34F8FFEE702B033
:1017D00010BD00BF240D00208021000869150008FD
:1017E000280D0020440D0020700D0020024A1368CF
:1017F00001331360704700BFF00C00202DE9F84F53
:101800003C4B1B68002B53D13B4B1C6801341C60C4
:10181000BCB93A4B1A68126842B14FF0500383F3D7
:101820001188BFF36F8FBFF34F8FFEE7344A1968FB
:10183000106818601160334A136801331360FFF7B2
:101840003BFE314D4FF0000B2B68304F9C423ED396
:10185000DFF8A880DFF8C490D8F80020126872BBC7
:101860004FF0FF322A6032E006F1040A5046FFF7DB
:1018700059FAB16A19B106F11800FFF753FA0122BB
:101880004FF0140EF06AD9F8003002FA00F1194353
:101890001F4BC9F800100EFB00305146FFF71FFA2E
:1018A0003868F16AC26A914228BF4FF0010BD3E752
:1018B000184A4FF0000B13680133136011E0D8F899
:1018C0000020D268D66871688C42CDD229603A680F
:1018D0000F4BD16A14224A439A58022A28BF4FF06C
:1018E000010B0D4A1268002A18BF4FF0010B584631
:1018F000BDE8F88FF00C0020700D0020500C002087
:10190000540C00202C0D0020280D00204C0C002031
:10191000580C0020EC0C0020740D0020F80C002066
:101920002DE9F843314C236843B94FF0500383F35A
:101930001188BFF36F8FBFF34F8FFEE7FFF75AFA9F
:101940002368013B236024682CB10024FFF774FA5C
:101950002046BDE8F883264B1B68002BF5D0DFF846
:10196000A890244FDFF8A480D9F80030E3B90CB177
:10197000FFF7A2FD204D2C6844B101271F4EFFF751
:101980003DFF00B13760013CF9D12C601B4B1B6857
:10199000002BDAD04FF08052194B1A60BFF34F8FF3
:1019A000BFF36F8F0124D1E7D9F80C300125DC6833
:1019B000261D04F11800FFF7B5F93046FFF7B2F91C
:1019C0001420E26A396805FA02F30B4300FB028037
:1019D00031463B60FFF783F90A4BE26A1B68DB6A1A
:1019E0009A4224BF054B1D60BEE700BFF00C0020EB
:1019F000E40C0020F80C0020EC0C0020740D0020FA
:101A000004ED00E04C0C0020300D0020580C0020AC
:101A100008B540B94FF080520D4B1A60BFF34F8F9D
:101A2000BFF36F8F08BD0B4B196841B14FF05003E6
:101A300083F31188BFF36F8FBFF34F8FFEE7FFF77C
:101A4000D5FEFFF74BFDFFF76BFF0028E2D008BD86
:101A500004ED00E0F00C0020174B10B51A68174B8E
:101A600012B101221A6010BD1A60154B1B68B3FA3F
:101A700083F31422DBB2C3F11F035A4311498C587C
:101A8000881844B94FF0500383F31188BFF36F8F68
:101A9000BFF34F8FFEE74468083264680A449442FB
:101AA00008BF6268446008BF4260142202FB03134F
:101AB0005B68DA68044BD5E7F00C0020740D002059
:101AC000F80C0020580C00204C0C002010B50C46DF
:101AD00040B94FF0500383F31188BFF36F8FBFF30A
:101AE0004F8FFEE7054B19681831FFF704F92046C0
:101AF000BDE810400121FFF7F1BC00BF4C0C0020F5
:101B000038B5C368DC6844B94FF0500383F31188DB
:101B1000BFF36F8FBFF34F8FFEE704F11805284620
:101B2000FFF700F9114B1B68E3B9251D2846FFF7A5
:101B3000F9F801230E49E26A086893400343142030
:101B40000B6029460B4B00FB0230FFF7C8F80A4B2D
:101B5000E26A1B68DB6A9A4285BF0120074B0020BE
:101B6000186038BD29460648EFE700BFF00C00209A
:101B7000F80C0020580C00204C0C0020740D0020A4
:101B8000300D0020034B1B680360034B1B68436050
:101B9000704700BF2C0D0020700D002070B50C4662
:101BA000054640B94FF0500383F31188BFF36F8FA0
:101BB000BFF34F8FFEE741B94FF0500383F3118815
:101BC000BFF36F8FBFF34F8FFEE7FFF713F90F4B94
:101BD00069681A682368581C0ED00D482E68006882
:101BE000864201D08A420ED2521A9A4209D29B1AD8
:101BF00023602846FFF7C6FF0024FFF71DF92046A3
:101C000070BD002323600124F7E700BF700D0020A2
:101C10002C0D00200122014B1A607047740D00202A
:101C2000054B1B6833B1054B1B68002B0CBF022012
:101C30000020704701207047440D0020F00C002068
:101C4000F8B5044608B90020F8BD224B1B6898423D
:101C500008D04FF0500383F31188BFF36F8FBFF3A9
:101C60004F8FFEE7836C43B94FF0500383F3118825
:101C7000BFF36F8FBFF34F8FFEE7C16A426C013B2A
:101C800091428364DFD0002BDDD1051D2846FFF78C
:101C900049F8114E114A50B91421E76A7943735833
:101CA0002BB901201368B84023EA00031360636C6A
:101CB000C3F10701E362A1610124116804FA03F092
:101CC000084310601420294600FB0360FFF707F863
:101CD0002046F8BD4C0C0020580C0020F80C0020C9
:101CE00008B5054C20461021FEF791FB4FF47A70A1
:101CF000FEF7DCFFF6E700BF0008014008B5054C21
:101D000020462021FEF783FB4FF4FA70FEF7CEFF4A
:101D1000F6E700BF0008014008B5044C204640210A
:101D2000FEF775FBFA20FEF7C1FFF7E70008014058
:101D300010B590B02822002106A800F0E6F9002195
:101D4000142201A800F0E1F94FF4803301220224AB
:101D500007930E934FF4E01306A806920A920F938E
:101D60000D94FEF75BFB0F234FF480620193002379
:101D7000214601A80294039304920593FEF728FDDF
:101D800010B010BD80B594B0FEF7E2F9FFF7D0FFB8
:101D9000102200210FA800F0B8F93A4B70219A697F
:101DA000394842F010029A619A69002502F0100247
:101DB0000292029A9A69354C42F020029A619A691D
:101DC00005AF02F020020392039A9A6942F00402DE
:101DD0009A619B69012203F004030493049BFEF7BC
:101DE00011FB4FF400530FA929480F93109511953B
:101DF000FEF726FA70230F930123109303230FA9F4
:101E0000214812931195FEF71BFA4FF4E133214854
:101E1000214A856080E80C000C23C56043610561A0
:101E20008561C561FEF7F6FE14A840F84C5DFEF72B
:101E300045FF1A4B18600FCC26460FC756F8043BD7
:101E4000294605A83B60FEF718FF154B0AAF18603E
:101E50000FCE0FC7336829460AA83B60FEF70DFF77
:101E6000104B0FAE183418600FCC0FC623682946EC
:101E70000FA83360FEF701FF0B4B1860FEF7F8FE6A
:101E8000FEE700BF001002400008014044210008A6
:101E9000001001408C0D002000440040840D002003
:101EA0007C0D0020800D0020880D00200268034B6F
:101EB0009A4201D1FEF75EB9704700BF002C014085
:101EC000114B07B59A690F2142F001029A619A6994
:101ED0006FF0010002F001020092009ADA6942F00C
:101EE0008052DA61DB69002203F080530193019B89
:101EF000FEF764F9054A536823F0E06343F000738A
:101F0000536003B05DF804FB001002400000014084
:101F100010B5044686B01022002102A800F0F5F8A2
:101F20002268164B9A4226D103F5E633DA6902A9F4
:101F300042F40032DA61DA69114802F400320092A8
:101F4000009A9A6942F004029A619B6903F00403C3
:101F50000193019B0423029302230393032305931C
:101F6000FEF76EF908230293002302A904480393A5
:101F70000493FEF765F906B010BD00BF00440040B1
:101F80000008014010B5014688B000221920FEF774
:101F900015F91920FEF746F9144B01A99A6903A80F
:101FA00042F400629A619B69114C03F4006302934E
:101FB000029BFEF7CBFCFEF7B9FC0E4B236040F210
:101FC000E733E3600C4BB0FBF3F0002301386060B3
:101FD00020462361A360FEF7C7FD20B92046FEF727
:101FE000D4FC08B010BD0120FBE700BF0010024088
:101FF000CC0D0020002C014040420F007047FEE74E
:10200000FEE7FEE7FEE770470148FEF7D2BC00BFDF
:10201000CC0D00200F4B1A6842F001021A6059687B
:102020000D4A0A405A601A6822F0847222F4803203
:102030001A601A6822F480221A605A6822F4FE029A
:102040005A604FF41F029A604FF00062034B9A608F
:10205000704700BF001002400000FFF800ED00E0F4
:10206000002103E00B4B5B58435004310A480B4BF3
:1020700042189A42F6D30A4A02E0002342F8043B8F
:10208000084B9A42F9D3FFF7C5FF00F00FF8FFF7AE
:1020900079FE7047C42100080000002010000020D5
:1020A000100000200C0E0020FEE7000070B5002597
:1020B0000C4E0D4CA41BA410A54209D100F02EF823
:1020C00000250A4E0A4CA41BA410A54205D170BDE0
:1020D00056F8253098470135EEE756F825309847F1
:1020E0000135F2E7BC210008BC210008BC21000832
:1020F000C021000810B5431E0A44914200D110BD12
:1021000011F8014B03F8014FF7E7034602449342ED
:1021100000D1704703F8011BF9E70000F8B500BFD4
:10212000F8BC08BC9E467047F8B500BFF8BC08BCB8
:042130009E46704710
:1021340002030405060708090A0B0C0D0E0F101004
:1021440097210008E11C00080000000000000000C6
:10215400800000008E210008FD1C0008FDFF000027
:10216400000000008000000085210008191D0008FF
:10217400FDFF0000000000008000000049444C45C1
:10218400006D795461736B3033006D795461736BF6
:1021940030320064656661756C745461736B000061
:1021A4000000000000000001020304060708090003
:0821B400000000010203040019
:0421BC0035010008E1
:0421C0001101000801
:1021C4000100000010000000AAAAAAAA0024F4003A
:04000005080020616E
:00000001FF
