:020000040800F2
:1000000000500020D10A0008710A0008730A000895
:10001000750A0008770A0008790A00080000000045
:100020000000000000000000000000007B0A000843
:100030007D0A0008000000007F0A0008810A00080D
:10004000190B0008190B0008190B0008190B000800
:10005000190B0008190B0008190B0008190B0008F0
:10006000190B0008190B0008190B0008190B0008E0
:10007000190B0008190B0008190B0008190B0008D0
:10008000190B0008190B0008190B0008190B0008C0
:10009000190B0008190B0008190B0008190B0008B0
:1000A000190B0008190B0008190B0008190B0008A0
:1000B000190B0008190B0008190B0008190B000890
:1000C000190B0008190B0008190B0008190B000880
:1000D000190B0008190B0008190B0008190B000870
:1000E000190B0008190B0008190B0008000000008C
:1000F0000000000000000000000000000000000000
:0C01000000000000000000005FF808F1A3
:10010C0010B5054C237833B9044B13B10448AFF345
:10011C0000800123237010BD0C00002000000000A3
:10012C00740B000808B5034B1BB103490348AFF32C
:10013C00008008BD0000000010000020740B0008B7
:10014C0038B50E4B054618784FF47A73B3FBF0F3C1
:10015C000B4A1068B0FBF3F000F080F8044658B975
:10016C000F2D09D8024629464FF0FF3000F042F817
:10017C00044B20461D6038BD012038BD0000002016
:10018C000800002004000020074A08B5136803206B
:10019C0043F01003136000F01BF80020FFF7D0FFB2
:1001AC0000F03EFC002008BD00200240034A044B36
:1001BC0011681B780B441360704700BF28000020A7
:1001CC0000000020014B1868704700BF2800002079
:1001DC00074A0002D36800F4E06023F4E0631B04D8
:1001EC001B0C43F0BF6343F400330343D3607047ED
:1001FC0000ED00E0174B30B5DC68C4F30224C4F109
:10020C000703251D042B28BF0423062D4FF00105E1
:10021C0098BF002405FA03F303F1FF3388BF033CB6
:10022C001940A14005FA04F4013C2240002842EA9E
:10023C0001024FEA0212A9BF00F16040064BD2B294
:10024C0000F56140BBBF00F00F00D2B280F8002374
:10025C001A5430BD00ED00E014ED00E00138B0F1AF
:10026C00807F0AD2F021064B064A586082F8231090
:10027C000020072298601A6070470120704700BF69
:10028C0010E000E000ED00E02DE9F74F00242646D9
:10029C00664BDFF8A8E1DFF8A8C10A6832FA06F568
:1002AC0002D103B0BDE8F08F4FF0010808FA06F850
:1002BC0002EA080290457FD14D68122D00F0AA8009
:1002CC0000F28380022D00F0A28077D8002D00F080
:1002DC008980012D00F099804FF00F09FF2A93BF00
:1002EC00824606F18045083DD0F800B092BFB500BB
:1002FC00D0F804B0AD0009FA05F82BEA080804FAA6
:10030C0005F588BF00F1040A48EA0505CAF8005053
:10031C00D1F804A01AF0805F4ED0454D444FAD6922
:10032C0026F0030845F00105BD61BD6908F1804860
:10033C0005F00105019508F5803806F0030B019DC9
:10034C004FEA8B0BD8F8085009FA0BF925EA090982
:10035C00384DA84263D005F58065A84261D005F5FB
:10036C008065A8425FD005F58065A8420CBF0325C7
:10037C00042505FA0BF545EA0905C8F808501D686F
:10038C001AF4803F14BF154395431D605D681AF441
:10039C00003F14BF154395435D609D681AF4801FA0
:1003AC0014BF154395439D60DD681AF4001F14BFFC
:1003BC002A4325EA0202DA6001366EE7032D22D0C9
:1003CC00112D89D1CC68043486E71B4FBD4209D06E
:1003DC0012D8DFF870904D4504D009F580394D45A1
:1003EC007FF47AAF8C68C4B1012C0CBFC0F81080BC
:1003FC00C0F8148008246FE77545F3D06545F1D03B
:10040C00DFF84490EBE7002466E7CC6864E7CC683F
:10041C00083461E7CC680C345EE704245CE7002503
:10042C00A7E70125A5E70225A3E700BF00040140CB
:10043C0000100240000801400000211000003110A3
:10044C000000321000001110000022100AB10161EE
:10045C0070470904FBE700002DE9F341054608B994
:10046C0001203CE00368DB0710D42B689F075DD4A8
:10047C002B68190700F194802B685A0700F1BE8095
:10048C00E869002840F02C81002028E08F4C63683C
:10049C0003F00C03042B07D0636803F00C03082B48
:1004AC0009D16368DE0306D523689C03DDD56B6830
:1004BC00002BDAD1D4E76B68B3F5803F12D12368F7
:1004CC0043F480332360FFF77DFE064623689803D0
:1004DC00CBD4FFF777FE801B6428F7D9032002B03A
:1004EC00BDE8F0819BB9236823F480332360236833
:1004FC0023F480232360FFF765FE064623689903E7
:10050C00B3D5FFF75FFE801B6428F7D9E6E7B3F598
:10051C00A02F236803D143F480232360CFE723F477
:10052C0080332360236823F48023CBE7674C636814
:10053C0013F00C0F07D0636803F00C03082B10D1D9
:10054C006368DA030DD423689B0702D52B69012B52
:10055C0086D123686A6923F0F80343EAC203236057
:10056C0086E72A695A4B6AB101221A60FFF72AFE04
:10057C00064623689F07ECD4FFF724FE801B022855
:10058C00F7D9ABE71A60FFF71DFE064623689807FC
:10059C007FF56EAFFFF716FE801B0228F6D99DE79C
:1005AC00AA694A4C4B4BDAB101221A60FFF70AFEDA
:1005BC000646636A9B070DD54FF4FA52464B1B68EF
:1005CC00B3FBF2F3019300BF019B5A1E0192002B67
:1005DC00F9D151E7FFF7F6FD801B0228E9D97DE739
:1005EC001A60FFF7EFFD0646636A9F077FF544AF7D
:1005FC00FFF7E8FD801B0228F6D96FE7334CE3695F
:10060C00D80024D40127E36943F08053E361E36904
:10061C0003F080530093009B304E3368D90518D5F6
:10062C00EB68012B26D1236A43F001032362FFF709
:10063C00C9FD41F288368046236A9B073FD5002FBF
:10064C003FF41EAFE36923F08053E36118E7002702
:10065C00E2E7336843F480733360FFF7B3FD804601
:10066C003368DA05DCD4FFF7ADFDA0EB0800642895
:10067C00F6D933E7ABB9236A41F2883823F001038A
:10068C002362236A23F004032362FFF79BFD0646D3
:10069C00236A9807D3D5FFF795FD801B4045F7D902
:1006AC001CE7052B236A03D143F004032362BAE74A
:1006BC0023F001032362236A23F00403B6E7FFF758
:1006CC0081FDA0EB0800B042B6D907E7001002404C
:1006DC0000004242800442420800002000700040AA
:1006EC002A4B5A681C4602F00C02082A3DD0002303
:1006FC00274E022833602BD1FFF764FD0746236891
:10070C0099011FD42B6AB3F5803F05D16268A968A3
:10071C0022F400320A436260696A62680B4322F475
:10072C0074121343636001233360FFF74BFD0546DE
:10073C0023689A013FF5A8AEFFF744FD401B022841
:10074C00F6D9CBE6FFF73EFDC01B0228D7D9C5E68C
:10075C00FFF738FD054623689B017FF595AEFFF743
:10076C0031FD401B0228F6D9B8E601283FF4B7AE9C
:10077C0058682B6A00F480329A427FF471AE6B6A2F
:10078C0000F47010C01A18BF0120A8E60010024037
:10079C006000424230B51B4B87B002AC03F1100530
:1007AC00224618685968083303C2AB421446F7D185
:1007BC0001238DF80430022313498DF805304B6862
:1007CC0003F00C02042A1BD0082A02D00F4807B0F1
:1007DC0030BDC3F3834206A80244DB0312F8102C8D
:1007EC000BD54B680A48C3F34043504306AA134445
:1007FC0013F8143CB0FBF3F0E9E706485043E6E786
:10080C000348E4E78C0B00080010024000127A0049
:10081C000024F40000093D002DE9F0410D4604468A
:10082C0010B90120BDE8F081454A136803F00703B5
:10083C008B4229D321688E0731D4CA0744D4404A4D
:10084C00136803F007039D4267D322683D4D12F0F5
:10085C00040F6ED1130706D56B68226923F460531D
:10086C0043EAC2036B60FFF795FF6B68364AC3F32C
:10087C000313D35CD840354B1860354B1868FFF721
:10088C005FFC0020BDE8F081136823F007030B43E5
:10089C001360136803F007039942C2D1CAE7294BCE
:1008AC0011F0040F1EBF5A6842F4E0625A60080748
:1008BC0042BF5A6842F460525A605A68A06822F0EB
:1008CC00F00202435A60B8E762681E4E012A336890
:1008DC001BD113F4003FA4D0736841F2883823F085
:1008EC00030313437360FFF76DFC0746736862687C
:1008FC0003F00C03B3EB820FA1D0FFF763FCC01B1A
:10090C004045F3D90320BDE8F081022A02D113F04F
:10091C00007FE0E713F0020FDDE7136823F0070315
:10092C002B431360136803F007039D427FF479AFE8
:10093C008BE76B68E16823F4E0630B436B6089E73A
:10094C0000200240001002409C0B00080800002010
:10095C000400002010B590B02822002106A800F059
:10096C00FBF81422002101A800F0F6F84FF48033B4
:10097C000122022407934FF400310E934FF4E0133D
:10098C0006A8069208910A920F930D94FFF764FD46
:10099C000F234FF4806201930023214601A8029497
:1009AC00039304920593FFF737FF10B010BD0000BE
:1009BC007FB5FFF7E9FBFFF7CDFF1022002102A85E
:1009CC0000F0CAF8144B40219A69144842F02002F6
:1009DC009A619A6902F020020092009A9A6942F098
:1009EC0004029A619B69002203F004030193019BAA
:1009FC00FFF72CFD40230293012303930023049360
:100A0C00032302A905480593FFF73EFC034AD3686C
:100A1C0083F04003D360FAE7001002400008014065
:100A2C000E4B82B09A6942F001029A619A6902F007
:100A3C0001020092009ADA6942F08052DA61DB69B5
:100A4C00074A03F080530193019B536823F0E06342
:100A5C0043F00073536002B0704700BF00100240B7
:100A6C00000001407047FEE7FEE7FEE7FEE7704737
:100A7C0070477047FFF79ABB0F4B1A6842F00102A0
:100A8C001A6059680D4A0A405A601A6822F084723A
:100A9C0022F480321A601A6822F480221A605A6892
:100AAC0022F4FE025A604FF41F029A604FF000626B
:100ABC00034B9A60704700BF001002400000FFF823
:100ACC0000ED00E0002103E00B4B5B584350043178
:100ADC000A480B4B42189A42F6D30A4A02E000230A
:100AEC0042F8043B084B9A42F9D3FFF7C5FF00F0DC
:100AFC000FF8FFF75DFF7047B40B000800000020F3
:100B0C000C0000200C0000202C000020FEE7000050
:100B1C0070B500250C4E0D4CA41BA410A54209D198
:100B2C0000F022F800250A4E0A4CA41BA410A54282
:100B3C0005D170BD56F8253098470135EEE756F8CB
:100B4C00253098470135F2E7AC0B0008AC0B0008D8
:100B5C00AC0B0008B00B000803460244934200D1D2
:100B6C00704703F8011BF9E7F8B500BFF8BC08BCE7
:100B7C009E467047F8B500BFF8BC08BC9E4670474F
:100B8C0002030405060708090A0B0C0D0E0F1010C2
:100B9C000000000000000000010203040607080921
:040BAC00310100080B
:040BB0000D0100082B
:0C0BB40001000000100000000024F4000C
:0400000508000AD114
:00000001FF
