:020000040800F2
:1000000000280020490F00089B0F0008A70F0008D8
:10001000AD0F0008B30F0008B90F00080000000082
:10002000000000000000000000000000BF0F0008FA
:10003000CB0F000800000000D70F0008E30F0008F6
:10004000990F0008990F0008990F0008990F0008F0
:10005000990F0008990F0008990F0008990F0008E0
:10006000990F0008990F0008990F0008990F0008D0
:10007000990F0008990F0008990F0008990F0008C0
:10008000990F0008990F0008990F0008990F0008B0
:10009000990F0008990F0008990F0008990F0008A0
:1000A000990F0008990F0008990F0008990F000890
:1000B000990F0008990F000800000000990F000830
:1000C000990F00080000000000000000990F0008D0
:1000D00000000000990F0008990F000800000000C0
:1000E000990F0008990F0008990F00080000000000
:1000F0000000000000000000000000000000000000
:0C01000000000000000000005FF808F1A3
:10010C0010B5054C237833B9044B13B10448AFF345
:10011C0000800123237010BD0000002000000000AF
:10012C00AC11000808B5034B1BB103490348AFF3EE
:10013C00008008BD0000000004000020AC11000885
:10014C0080B487B000AF786000237B6100233B61F3
:10015C000F23FB607B68DB78002B3AD0274BDB68E6
:10016C00DB431B0A03F007037B617B69C3F10403C8
:10017C003B61FA687B6922FA03F3FB607B685B786E
:10018C001A463B6902FA03F37B617B689B781A463B
:10019C00FB6813407A6913437B617B691B017B61AC
:1001AC00174A7B681B787969C9B213440A4683F8ED
:1001BC000023134A7B681B785B09DBB218467B680B
:1001CC001B7803F01F03012101FA03F342F82030DE
:1001DC000FE00B497B681B785B09DBB218467B6828
:1001EC001B7803F01F0301229A4000F1200341F811
:1001FC00232000BF1C37BD4680BC704700ED00E0DB
:10020C0000E100E080B489B000AF78603960002371
:10021C00FB6100233B610023BB610023FB600023D7
:10022C007B610023BB603B68DB7803F00F03FB6151
:10023C003B68DB7803F01003002B05D03B689B7800
:10024C001A46FB691343FB613B681B88DBB2002B2E
:10025C0044D07B681B687B610023BB6138E00122C2
:10026C00BB6902FA03F3FB603B681B881A46FB6808
:10027C0013403B613A69FB689A4226D1BB699B00EB
:10028C00FB600F22FB6802FA03F3BB60BB68DB4325
:10029C007A6913407B61FA69FB6802FA03F37A69A5
:1002AC0013437B613B68DB78282B05D10122BB69AA
:1002BC009A407B685A6108E03B68DB78482B04D194
:1002CC000122BB699A407B681A61BB690133BB612F
:1002DC00BB69072BC3D97B687A691A603B681B889A
:1002EC00FF2B46D97B685B687B610023BB613AE0DE
:1002FC00BB690833012202FA03F3FB603B681B88DD
:10030C001A46FB6813403B613A69FB689A4227D155
:10031C00BB699B00FB600F22FB6802FA03F3BB6016
:10032C00BB68DB437A6913407B61FA69FB6802FAAC
:10033C0003F37A6913437B613B68DB78282B05D187
:10034C00BB69083301229A407B685A613B68DB78B1
:10035C00482B05D1BB69083301229A407B681A618E
:10036C00BB690133BB61BB69072BC1D97B687A6957
:10037C005A6000BF2437BD4680BC704780B483B040
:10038C0000AF78600B46FB70FB78002B06D0094958
:10039C00084B9A697B6813438B6106E00549054B52
:1003AC009A697B68DB4313408B6100BF0C37BD46F9
:1003BC0080BC70470010024080B483B000AF7860FE
:1003CC000B46FB70FB78002B06D00949084BDA6909
:1003DC007B681343CB6106E00549054BDA697B6802
:1003EC00DB431340CB6100BF0C37BD4680BC70476C
:1003FC000010024080B485B000AF786039600023F3
:10040C00FB817B681B88FB817B682E4A934213D04F
:10041C007B682D4A93420FD07B68B3F1804F0BD091
:10042C007B682A4A934207D07B68294A934203D0BF
:10043C007B68284A934208D1FB8923F07003FB8127
:10044C003B685A88FB891343FB817B68224A9342A1
:10045C000CD07B68214A934208D0FB8923F440736B
:10046C00FB813B68DA88FB891343FB817B68FA8943
:10047C001A803B689A887B689A853B681A887B68E7
:10048C001A857B680F4A93420FD07B680E4A9342C1
:10049C000BD07B68124A934207D07B68114A934277
:1004AC0003D07B68104A934204D13B681B7A9AB202
:1004BC007B681A867B6801229A8200BF1437BD467E
:1004CC0080BC7047002C0140003401400004004007
:1004DC0000080040000C00400010004000140040D8
:1004EC0000400140004401400048014080B485B008
:1004FC0000AF7860396000237B810023FB810023EF
:10050C00BB817B681B8C9BB223F480739AB27B6893
:10051C001A847B681B8CFB817B689B88BB817B6806
:10052C009B8B7B817B8923F070037B817B8923F000
:10053C0003037B813B681A887B8913437B81FB898E
:10054C0023F40073FB813B681B891B029AB2FB8965
:10055C001343FB813B685B881B029AB2FB891343F4
:10056C00FB817B68224A934203D07B68214A9342E9
:10057C002BD1FB8923F40063FB813B685B891B0255
:10058C009AB2FB891343FB81FB8923F48063FB81C3
:10059C003B689B881B029AB2FB891343FB81BB8986
:1005AC0023F48053BB81BB8923F40053BB813B688C
:1005BC009B891B019AB2BB891343BB813B68DB89C6
:1005CC001B019AB2BB891343BB817B68BA899A80A1
:1005DC007B687A899A833B68DA887B689A877B6820
:1005EC00FA891A8400BF1437BD4680BC704700BF1F
:1005FC00002C01400034014080B485B000AF78601D
:10060C0039600023BB8100237B810023FB817B6845
:10061C001B8C9BB223F480539AB27B681A847B6840
:10062C001B8C7B817B689B88FB817B689B8BBB8154
:10063C00BB8923F4E043BB81BB8923F44073BB81AA
:10064C003B681B881B029AB2BB891343BB817B8915
:10065C0023F400537B813B681B891B039AB27B8973
:10066C0013437B813B685B881B039AB27B891343E2
:10067C007B817B68124A934203D07B68114A934278
:10068C000AD1FB8923F48043FB813B689B899B0146
:10069C009AB2FB891343FB817B68FA899A807B6849
:1006AC00BA899A833B68DA887B68A3F840207B6818
:1006BC007A891A8400BF1437BD4680BC704700BFCE
:1006CC00002C01400034014080B582B000AF78604E
:1006DC0039603B681B88002B0FD13B6859883B68FD
:1006EC009A883B681B89786800F084F93B68DB8842
:1006FC001946786800F00EF936E03B681B88042B2D
:10070C000FD13B6859883B689A883B681B8978688D
:10071C0000F0E0F93B68DB881946786800F015F9C1
:10072C0022E03B681B88082B0FD13B6859883B683B
:10073C009A883B681B89786800F046FA3B68DB882E
:10074C001946786800F01EF90EE03B6859883B6842
:10075C009A883B681B89786800F0ACFA3B68DB88A8
:10076C001946786800F029F900BF0837BD4680BDEE
:10077C0080B584B000AF786039600023FB81012321
:10078C00BB813B685B88002B02D10223FB8101E01B
:10079C000023FB813B689B88012B02D10223BB8188
:1007AC0001E00123BB813B681B88002B1CD13B68FB
:1007BC0059883B689A883B681B89786800F01AF95D
:1007CC003B68DB881946786800F0A4F83B681B8905
:1007DC00BA89F989786800F07DF93B68DB8819469D
:1007EC00786800F0B2F81BE03B6859883B689A883F
:1007FC003B681B89786800F06DF93B68DB8819460B
:10080C00786800F0A2F83B681B89BA89F989786886
:10081C0000F0F0F83B68DB881946786800F07AF84D
:10082C0000BF1037BD4680BD80B483B000AF786088
:10083C000B46FB70FB78002B08D07B681B889BB2A7
:10084C0043F001039AB27B681A8007E07B681B882F
:10085C009BB223F001039AB27B681A8000BF0C375D
:10086C00BD4680BC704780B483B000AF78600B4647
:10087C00FB70FB78002B08D07B681B889BB243F085
:10088C0080039AB27B681A8007E07B681B889BB256
:10089C0023F080039AB27B681A8000BF0C37BD46E8
:1008AC0080BC704780B485B000AF78600B467B800D
:1008BC000023FB817B689B8BFB81FB8923F0080366
:1008CC00FB81FA897B881343FB817B68FA899A83C5
:1008DC0000BF1437BD4680BC704780B485B000AFF4
:1008EC0078600B467B800023FB817B689B8BFB81B4
:1008FC00FB8923F40063FB817B881B029AB2FB8982
:10090C001343FB817B68FA899A8300BF1437BD4679
:10091C0080BC704780B483B000AF78600B467B809E
:10092C007B681B8B9BB223F00C039AB27B681A83F7
:10093C007B681B8B9AB27B8813439AB27B681A83B1
:10094C0000BF0C37BD4680BC704780B483B000AF8D
:10095C0078600B467B807B681B8B9BB223F44063D7
:10096C009AB27B681A837B681B8B9AB27B881B02BA
:10097C009BB213439AB27B681A8300BF0C37BD46F7
:10098C0080BC704780B483B000AF78600B467B802E
:10099C007B689B8B9BB223F00C039AB27B689A8387
:1009AC007B689B8B9AB27B8813439AB27B689A8341
:1009BC0000BF0C37BD4680BC704780B483B000AF1D
:1009CC0078600B467B807B689B8B9BB223F44063E7
:1009DC009AB27B689A837B689B8B9AB27B881B024A
:1009EC009BB213439AB27B689A8300BF0C37BD4607
:1009FC0080BC704780B487B000AFF86008461146E1
:100A0C001A4603467B810B463B811346FB80002331
:100A1C00BB820023FB82FB681B8C9BB223F001037F
:100A2C009AB2FB681A84FB681B8BBB82FB681B8C1D
:100A3C00FB82BB8A23F0F303BB82FB881B019AB2B7
:100A4C003B8913439AB2BB8A1343BB82FB681C4A93
:100A5C00934213D0FB681B4A93420FD0FB68B3F14F
:100A6C00804F0BD0FB68184A934207D0FB68174A9B
:100A7C00934203D0FB68164A93420BD1FB8A23F0B6
:100A8C000203FB827A89FB8A13439BB243F0010376
:100A9C00FB820AE0FB8A23F00A03FB827A89FB8A39
:100AAC0013439BB243F00103FB82FB68BA8A1A839F
:100ABC00FB68FA8A1A8400BF1C37BD4680BC70479D
:100ACC00002C0140003401400004004000080040AC
:100ADC00000C004080B487B000AFF86008461146A7
:100AEC001A4603467B810B463B811346FB80002351
:100AFC00BB820023FB8200237B82FB681B8C9BB296
:100B0C0023F010039AB2FB681A84FB681B8BBB8220
:100B1C00FB681B8CFB827B891B017B82BB8A23F4C9
:100B2C0040731B051B0DBB82FB881B039AB2BB8A4F
:100B3C001343BB823B891B029AB2BB8A1343BB8211
:100B4C00FB681C4A934213D0FB681B4A93420FD09C
:100B5C00FB68B3F1804F0BD0FB68184A934207D067
:100B6C00FB68174A934203D0FB68164A93420BD199
:100B7C00FB8A23F02003FB827A8AFB8A13439BB205
:100B8C0043F01003FB820AE0FB8A23F0A003FB82F4
:100B9C007A89FB8A13439BB243F01003FB82FB68F8
:100BAC00BA8A1A83FB68FA8A1A8400BF1C37BD46BE
:100BBC0080BC7047002C0140003401400004004010
:100BCC0000080040000C004080B487B000AFF86013
:100BDC00084611461A4603467B810B463B81134659
:100BEC00FB800023BB820023FB8200237B82FB68FB
:100BFC001B8C9BB223F480739AB2FB681A84FB683B
:100C0C009B8BBB82FB681B8CFB827B891B027B82D0
:100C1C00BB8A23F0F303BB82FB881B019AB23B898E
:100C2C0013439AB2BB8A1343BB82FB681C4A9342A0
:100C3C0013D0FB681B4A93420FD0FB68B3F1804F73
:100C4C000BD0FB68184A934207D0FB68174A9342B3
:100C5C0003D0FB68164A93420BD1FB8A23F4007332
:100C6C00FB827A8AFB8A13439BB243F48073FB8228
:100C7C000AE0FB8A23F42063FB827A89FB8A134304
:100C8C009BB243F48073FB82FB68BA8A9A83FB683D
:100C9C00FA8A1A8400BF1C37BD4680BC704700BF5F
:100CAC00002C0140003401400004004000080040CA
:100CBC00000C004080B487B000AFF86008461146C5
:100CCC001A4603467B810B463B811346FB8000236F
:100CDC00BB820023FB8200237B82FB681B8C9BB2B4
:100CEC0023F480539AB2FB681A84FB689B8BBB82FB
:100CFC00FB681B8CFB827B891B037B82BB8A23F4E6
:100D0C0040731B051B0DBB823B891B029AB2BB8A2D
:100D1C001343BB82FB881B039AB2BB8A1343BB826F
:100D2C00FB681D4A934213D0FB681C4A93420FD0B8
:100D3C00FB68B3F1804F0BD0FB68194A934207D084
:100D4C00FB68184A934203D0FB68174A93420BD1B5
:100D5C00FB8A23F40053FB827A8AFB8A13439BB2EF
:100D6C0043F48053FB820CE0FB8A23F400735B0496
:100D7C005B0CFB827A89FB8A13439BB243F480534E
:100D8C00FB82FB68BA8A9A83FB68FA8A1A8400BFD2
:100D9C001C37BD4680BC7047002C0140003401401C
:100DAC000004004000080040000C004080B584B0F6
:100DBC0000AF6323BB800023FB804FF47A733B812D
:100DCC0000237B8100233B733B1D19464FF0804071
:100DDC00FFF710FB00BF1037BD4680BD80B586B055
:100DEC0000AF7860396060233B817B689BB2FB81EC
:100DFC0001237B8100233B8207F1080319464FF046
:100E0C008040FFF773FB3B689BB2FB8107F1080343
:100E1C0019464FF08040FFF7EFFB08214FF0804060
:100E2C00FFF740FD08214FF08040FFF756FD0121F0
:100E3C004FF08040FFF717FD01214FF08040FFF786
:100E4C00F3FC00BF1837BD4680BD000080B582B0F2
:100E5C0000AF01210420FFF791FA01210120FFF7D7
:100E6C00ABFA0C23BB801823FB710323BB713B1D16
:100E7C0019460848FFF7C6F94023BB804823FB718D
:100E8C003B1D19460348FFF7BDF900BF0837BD46A7
:100E9C0080BD00BF0008014080B584B000AF0121C7
:100EAC000220FFF789FA01210420FFF767FA0023DB
:100EBC00BB800A23FB8001233B8100237B81002321
:100ECC00BB813B1D19460848FFF7FEFB3B1D19462D
:100EDC000548FFF74DFC01210348FFF7A5FC00BFB7
:100EEC001037BD4680BD00BF0004004080B582B005
:100EFC0000AF1D233B7101237B710023BB710123C8
:100F0C00FB713B1D1846FFF71BF900BF0837BD46A8
:100F1C0080BD80B582B000AF07F110037B60FFF796
:100F2C0095FFFFF743FF4FF448714FF4C870FFF77C
:100F3C0055FFFFF7B1FFFFF7D9FFFEE7DFF834D01D
:100F4C00002103E00C4B5B58435004310B480C4B15
:100F5C0042189A42F6D30B4A02E0002342F8043BB3
:100F6C00094B9A42F9D300F03DF800F0F5F8FFF781
:100F7C00D0FF704700280020CC1100080000002092
:100F8C0000000020000000201C000020FEE780B4C0
:100F9C0000AF00BFBD4680BC704780B400AFFEE719
:100FAC0080B400AFFEE780B400AFFEE780B400AFC2
:100FBC00FEE780B400AF00BFBD4680BC704780B474
:100FCC0000AF00BFBD4680BC704780B400AF00BF0F
:100FDC00BD4680BC704780B400AF00BFBD4680BC2E
:100FEC007047000080B500AF154A154B1B6843F0E5
:100FFC00010313601249124B5A68124B13404B6099
:10100C000F4A0F4B1B6823F0847323F48033136057
:10101C000B4A0B4B1B6823F480231360084A084BC4
:10102C005B6823F4FE035360054B4FF41F029A6078
:10103C0000F00CF8044B4FF000629A6000BF80BDCA
:10104C00001002400000FFF800ED00E080B500AF9A
:10105C0000F002F800BF80BD80B483B000AF002365
:10106C007B6000233B603A4A394B1B6843F4803366
:10107C001360374B1B6803F400333B607B68013310
:10108C007B603B68002B03D17B68B3F5A06FF0D17C
:10109C002F4B1B6803F40033002B02D001233B6061
:1010AC0001E000233B603B68012B4BD1294A294BC3
:1010BC001B6843F010031360264A264B1B6823F071
:1010CC0003031360234A234B1B6843F00203136092
:1010DC001F4A1F4B5B6853601D4A1D4B5B68536076
:1010EC001B4A1B4B5B6843F480635360184A184BD4
:1010FC005B6823F47C135360154A154B5B6843F40F
:10110C00E8135360124A124B1B6843F08073136050
:10111C0000BF0F4B1B6803F00073002BF9D00C4A77
:10112C000B4B5B6823F003035360094A084B5B6865
:10113C0043F00203536000BF054B5B6803F00C03E4
:10114C00082BF9D100BF0C37BD4680BC704700BFDF
:10115C00001002400020024070B500250C4E0D4CD2
:10116C00A41BA410A54209D100F01AF800250A4EC0
:10117C000A4CA41BA410A54205D170BD56F825300D
:10118C0098470135EEE756F8253098470135F2E7D8
:10119C00C4110008C4110008C4110008C8110008CB
:1011AC00F8B500BFF8BC08BC9E467047F8B500BF48
:0811BC00F8BC08BC9E46704718
:0411C40031010008ED
:0411C8000D0100080D
:0400000508000F4997
:00000001FF
