:020000040800F2
:100000000028002041080008930800089F08000805
:10001000A5080008AB080008B108000800000000AF
:10002000000000000000000000000000B708000809
:10003000C308000800000000CF080008DB08000823
:10004000910800089108000891080008910800082C
:10005000910800089108000891080008910800081C
:10006000910800089108000891080008910800080C
:1000700091080008910800089108000891080008FC
:1000800091080008910800089108000891080008EC
:1000900091080008910800089108000891080008DC
:1000A00091080008910800089108000891080008CC
:1000B000910800089108000800000000910800085D
:1000C00091080008000000000000000091080008EE
:1000D00000000000910800089108000800000000DE
:1000E000910800089108000891080008000000002D
:1000F0000000000000000000000000000000000000
:0C01000000000000000000005FF808F1A3
:10010C0010B5054C237833B9044B13B10448AFF345
:10011C0000800123237010BD0000002000000000AF
:10012C00A40A000808B5034B1BB103490348AFF3FD
:10013C00008008BD0000000004000020A40A000894
:10014C0080B489B000AF786039600023FB61002374
:10015C003B610023BB610023FB6000237B61002318
:10016C00BB603B68DB7803F00F03FB613B68DB781B
:10017C0003F01003002B05D03B689B781A46FB69F3
:10018C001343FB613B681B88DBB2002B44D07B68BC
:10019C001B687B610023BB6138E00122BB6902FA5A
:1001AC0003F3FB603B681B881A46FB6813403B61FA
:1001BC003A69FB689A4226D1BB699B00FB600F220F
:1001CC00FB6802FA03F3BB60BB68DB437A6913403C
:1001DC007B61FA69FB6802FA03F37A6913437B616A
:1001EC003B68DB78282B05D10122BB699A407B68E0
:1001FC005A6108E03B68DB78482B04D10122BB69CB
:10020C009A407B681A61BB690133BB61BB69072BE0
:10021C00C3D97B687A691A603B681B88FF2B46D967
:10022C007B685B687B610023BB613AE0BB69083388
:10023C00012202FA03F3FB603B681B881A46FB6839
:10024C0013403B613A69FB689A4227D1BB699B001A
:10025C00FB600F22FB6802FA03F3BB60BB68DB4355
:10026C007A6913407B61FA69FB6802FA03F37A69D5
:10027C0013437B613B68DB78282B05D1BB690833C2
:10028C0001229A407B685A613B68DB78482B05D188
:10029C00BB69083301229A407B681A61BB69013340
:1002AC00BB61BB69072BC1D97B687A695A6000BFF7
:1002BC002437BD4680BC704780B483B000AF7860F3
:1002CC000B46FB70FB78002B06D00949084B9A694A
:1002DC007B6813438B6106E00549054B9A697B6883
:1002EC00DB4313408B6100BF0C37BD4680BC7047AD
:1002FC000010024080B483B000AF78600B46FB70F6
:10030C00FB78002B06D00949084BDA697B6813434C
:10031C00CB6106E00549054BDA697B68DB4313408A
:10032C00CB6100BF0C37BD4680BC7047001002404B
:10033C0080B485B000AF786039600023FB817B68A6
:10034C001B88FB817B682E4A934213D07B682D4A15
:10035C0093420FD07B68B3F1804F0BD07B682A4A55
:10036C00934207D07B68294A934203D07B68284A82
:10037C00934208D1FB8923F07003FB813B685A88B8
:10038C00FB891343FB817B68224A93420CD07B6828
:10039C00214A934208D0FB8923F44073FB813B68CC
:1003AC00DA88FB891343FB817B68FA891A803B68E6
:1003BC009A887B689A853B681A887B681A857B6863
:1003CC000F4A93420FD07B680E4A93420BD07B6846
:1003DC00124A934207D07B68114A934203D07B6840
:1003EC00104A934204D13B681B7A9AB27B681A86F6
:1003FC007B6801229A8200BF1437BD4680BC7047CF
:10040C00002C014000340140000400400008004072
:10041C00000C00400010004000140040004001405F
:10042C00004401400048014080B485B000AF7860C2
:10043C00396000237B810023FB810023BB817B6817
:10044C001B8C9BB223F480739AB27B681A847B68F2
:10045C001B8CFB817B689B88BB817B689B8B7B8126
:10046C007B8923F070037B817B8923F003037B81E1
:10047C003B681A887B8913437B81FB8923F40073C7
:10048C00FB813B681B891B029AB2FB891343FB81DE
:10049C003B685B881B029AB2FB891343FB817B6828
:1004AC00224A934203D07B68214A93422BD1FB8989
:1004BC0023F40063FB813B685B891B029AB2FB89C6
:1004CC001343FB81FB8923F48063FB813B689B888E
:1004DC001B029AB2FB891343FB81BB8923F4805323
:1004EC00BB81BB8923F40053BB813B689B891B01F7
:1004FC009AB2BB891343BB813B68DB891B019AB25F
:10050C00BB891343BB817B68BA899A807B687A89E3
:10051C009A833B68DA887B689A877B68FA891A84A5
:10052C0000BF1437BD4680BC704700BF002C014093
:10053C000034014080B485B000AF7860396000238E
:10054C00BB8100237B810023FB817B681B8C9BB2CE
:10055C0023F480539AB27B681A847B681B8C7B8152
:10056C007B689B88FB817B689B8BBB81BB8923F45D
:10057C00E043BB81BB8923F44073BB813B681B8880
:10058C001B029AB2BB891343BB817B8923F40053B2
:10059C007B813B681B891B039AB27B8913437B814C
:1005AC003B685B881B039AB27B8913437B817B6816
:1005BC00124A934203D07B68114A93420AD1FB89B9
:1005CC0023F48043FB813B689B899B019AB2FB8996
:1005DC001343FB817B68FA899A807B68BA899A837A
:1005EC003B68DA887B68A3F840207B687A891A8498
:1005FC0000BF1437BD4680BC704700BF002C0140C3
:10060C000034014080B483B000AF78600B46FB70BF
:10061C00FB78002B08D07B681B889BB243F001034E
:10062C009AB27B681A8007E07B681B889BB223F028
:10063C0001039AB27B681A8000BF0C37BD4680BCA0
:10064C00704780B483B000AF78600B46FB70FB78CA
:10065C00002B08D07B681B889BB243F080039AB2B6
:10066C007B681A8007E07B681B889BB223F08003B1
:10067C009AB27B681A8000BF0C37BD4680BC7047AD
:10068C0080B485B000AF78600B467B800023FB8183
:10069C007B689B8BFB81FB8923F00803FB81FA8928
:1006AC007B881343FB817B68FA899A8300BF1437DC
:1006BC00BD4680BC704780B485B000AF78600B46F7
:1006CC007B800023FB817B689B8BFB81FB8923F464
:1006DC000063FB817B881B029AB2FB891343FB816D
:1006EC007B68FA899A8300BF1437BD4680BC70477B
:1006FC0080B584B000AF6323BB800023FB804FF434
:10070C007A733B8100237B8100233B733B1D19468D
:10071C004FF08040FFF70CFE00BF1037BD4680BD88
:10072C0080B586B000AF7860396060233B817B6810
:10073C009BB2FB8101237B8100233B8207F10803E1
:10074C0019464FF08040FFF76FFE3B689BB2FB8170
:10075C0007F1080319464FF08040FFF7EBFE082124
:10076C004FF08040FFF78CFF08214FF08040FFF7DF
:10077C00A2FF01214FF08040FFF763FF01214FF0F2
:10078C008040FFF73FFF00BF1837BD4680BD00001B
:10079C0080B582B000AF01210420FFF78DFD01214F
:1007AC000120FFF7A7FD0C23BB801823FB7103234B
:1007BC00BB713B1D19460348FFF7C2FC00BF08374D
:1007CC00BD4680BD0008014080B582B000AFFFF788
:1007DC00DFFFFFF78DFF64214FF42F70FFF7A0FFB1
:1007EC0000237B601CE04FF080417B680F4A82FB4A
:1007FC0003021213DB17D31A9BB28B874FF0804185
:10080C007B680A4A82FB03021213DB179B1A9BB20A
:10081C0003F57A739BB2A1F840307B6801337B609F
:10082C007B68034A9342DEDDDAE700BFAD8BDB6801
:10083C007F969800DFF834D0002103E00C4B5B5816
:10084C00435004310B480C4B42189A42F6D30B4AD6
:10085C0002E0002342F8043B094B9A42F9D300F022
:10086C003DF800F0F5F8FFF7AFFF704700280020C7
:10087C00C40A000800000020000000200000002036
:10088C001C000020FEE780B400AF00BFBD4680BC5A
:10089C00704780B400AFFEE780B400AFFEE780B4D1
:1008AC0000AFFEE780B400AFFEE780B400AF00BF3E
:1008BC00BD4680BC704780B400AF00BFBD4680BC55
:1008CC00704780B400AF00BFBD4680BC704780B499
:1008DC0000AF00BFBD4680BC7047000080B500AFC4
:1008EC00154A154B1B6843F0010313601249124B58
:1008FC005A68124B13404B600F4A0F4B1B6823F086
:10090C00847323F4803313600B4A0B4B1B6823F462
:10091C0080231360084A084B5B6823F4FE03536082
:10092C00054B4FF41F029A6000F00CF8044B4FF08B
:10093C0000629A6000BF80BD001002400000FFF80A
:10094C0000ED00E080B500AF00F002F800BF80BD04
:10095C0080B483B000AF00237B6000233B603A4A35
:10096C00394B1B6843F480331360374B1B6803F41B
:10097C0000333B607B6801337B603B68002B03D109
:10098C007B68B3F5A06FF0D12F4B1B6803F40033D9
:10099C00002B02D001233B6001E000233B603B684D
:1009AC00012B4BD1294A294B1B6843F010031360D0
:1009BC00264A264B1B6823F003031360234A234B60
:1009CC001B6843F0020313601F4A1F4B5B685360A4
:1009DC001D4A1D4B5B6853601B4A1B4B5B6843F401
:1009EC0080635360184A184B5B6823F47C13536084
:1009FC00154A154B5B6843F4E8135360124A124BCB
:100A0C001B6843F08073136000BF0F4B1B6803F02F
:100A1C000073002BF9D00C4A0B4B5B6823F00303DB
:100A2C005360094A084B5B6843F00203536000BFF4
:100A3C00054B5B6803F00C03082BF9D100BF0C3796
:100A4C00BD4680BC704700BF001002400020024031
:100A5C0070B500250C4E0D4CA41BA410A54209D159
:100A6C0000F01AF800250A4E0A4CA41BA410A5424B
:100A7C0005D170BD56F8253098470135EEE756F88C
:100A8C00253098470135F2E7BC0A0008BC0A00087B
:100A9C00BC0A0008C00A0008F8B500BFF8BC08BCC6
:100AAC009E467047F8B500BFF8BC08BC9E46704720
:040ABC0031010008FC
:040AC0000D0100081C
:0400000508000841A6
:00000001FF
